:1000000000000120110000000000000000000000BE
:100010001C480101020A03130A2005214218431A51
:10002000C41C851EFF20802805300A385A203C2138
:10003000024002460A40434003464B400443044604
:100040000C43854305468D43CE430427B840F94011
:100050003A410F20032142434B4208428842C842A2
:10006000102000028046202109028946C844C84564
:100070004046824601A010A9FEE7C04678563412D9
:0800800000EFCDAB78563412FD
:0400000300000010E9
:00000001FF
