:1000000000000120210000000000000000000000AE
:1000100000000000000000000000000000000000E0
:100020001AA03249324A5A2304240151055908249E
:100030000355065D0C240253055B065B08242D4F17
:100040000753075F80278773807B0E240657028241
:10005000058A416146690376077E27490A4A01916C
:10006000019B264819A10860888088710A688B88DE
:1000700088888D798A790027CF71C8791D4F0F81C3
:10008000098908240A5FFEE7EFBEADDE000000002C
:100090000000000000000000000000000000000060
:1000A0000000000000000000000000000000000050
:1000B0000000000000000000000000000000000040
:1000C0000000000000000000000000000000000030
:1000D0000000000000000000000000000000000020
:1000E00000000000000000000000000078563412FC
:1000F000CDAB00000080000088000000000000FF81
:0400000300000020D9
:00000001FF
