:1000000000000120110000000000000000000000BE
:1000100016A02E492E4A5A230424015105590824BA
:100020000355065D0C240253055B065B802787732E
:10003000807B0282058A416146690376077E2549F5
:10004000094A0191019B244818A1086088808871A1
:100050000A688B8888888D798A790027CF71C8795A
:100060001E4F0F810989FEE7EFBEADDE00000000E4
:100070000000000000000000000000000000000080
:100080000000000000000000000000000000000070
:100090000000000000000000000000000000000060
:1000A0000000000000000000000000000000000050
:1000B0000000000000000000000000000000000040
:1000C000000000000000000000000000785634121C
:1000D000CDAB000068000000000000FF00800000C1
:0400000300000010E9
:00000001FF
